{
  "_format": "hh-sol-artifact-1",
  "contractName": "Lock",
  "sourceName": "contracts/Lock.sol",
  "abi": [
    {
      "inputs": [
        {
          "internalType": "uint256",
          "name": "",
          "type": "uint256"
        }
      ],
      "name": "campaigns",
      "outputs": [
        {
          "internalType": "string",
          "name": "title",
          "type": "string"
        },
        {
          "internalType": "string",
          "name": "description",
          "type": "string"
        },
        {
          "internalType": "uint256",
          "name": "target",
          "type": "uint256"
        },
        {
          "internalType": "uint256",
          "name": "deadline",
          "type": "uint256"
        },
        {
          "internalType": "uint256",
          "name": "amountCollected",
          "type": "uint256"
        },
        {
          "internalType": "address",
          "name": "owner",
          "type": "address"
        }
      ],
      "stateMutability": "view",
      "type": "function"
    },
    {
      "inputs": [
        {
          "internalType": "address",
          "name": "_owner",
          "type": "address"
        },
        {
          "internalType": "string",
          "name": "_title",
          "type": "string"
        },
        {
          "internalType": "string",
          "name": "_description",
          "type": "string"
        },
        {
          "internalType": "uint256",
          "name": "_target",
          "type": "uint256"
        },
        {
          "internalType": "uint256",
          "name": "_deadline",
          "type": "uint256"
        }
      ],
      "name": "createCampaign",
      "outputs": [
        {
          "internalType": "uint256",
          "name": "",
          "type": "uint256"
        }
      ],
      "stateMutability": "nonpayable",
      "type": "function"
    },
    {
      "inputs": [
        {
          "internalType": "uint256",
          "name": "_id",
          "type": "uint256"
        }
      ],
      "name": "donateTOCampaign",
      "outputs": [],
      "stateMutability": "payable",
      "type": "function"
    },
    {
      "inputs": [],
      "name": "getCampaigns",
      "outputs": [
        {
          "components": [
            {
              "internalType": "string",
              "name": "title",
              "type": "string"
            },
            {
              "internalType": "string",
              "name": "description",
              "type": "string"
            },
            {
              "internalType": "uint256",
              "name": "target",
              "type": "uint256"
            },
            {
              "internalType": "uint256",
              "name": "deadline",
              "type": "uint256"
            },
            {
              "internalType": "uint256",
              "name": "amountCollected",
              "type": "uint256"
            },
            {
              "internalType": "address",
              "name": "owner",
              "type": "address"
            },
            {
              "internalType": "address[]",
              "name": "donators",
              "type": "address[]"
            },
            {
              "internalType": "uint256[]",
              "name": "donations",
              "type": "uint256[]"
            }
          ],
          "internalType": "struct Lock.Campaign[]",
          "name": "",
          "type": "tuple[]"
        }
      ],
      "stateMutability": "view",
      "type": "function"
    },
    {
      "inputs": [
        {
          "internalType": "uint256",
          "name": "_id",
          "type": "uint256"
        }
      ],
      "name": "getDonators",
      "outputs": [
        {
          "internalType": "address[]",
          "name": "",
          "type": "address[]"
        },
        {
          "internalType": "uint256[]",
          "name": "",
          "type": "uint256[]"
        }
      ],
      "stateMutability": "view",
      "type": "function"
    },
    {
      "inputs": [],
      "name": "numberOfCampaigns",
      "outputs": [
        {
          "internalType": "uint256",
          "name": "",
          "type": "uint256"
        }
      ],
      "stateMutability": "view",
      "type": "function"
    }
  ],
  "bytecode": "0x60806040526000600155348015601457600080fd5b5061178e806100246000396000f3fe6080604052600436106100555760003560e01c8063075843c31461005a57806307ca140d146100975780630fa91fa9146100c2578063141961bc1461010057806394ad41ef14610142578063a6b036331461015e575b600080fd5b34801561006657600080fd5b50610081600480360381019061007c9190610c09565b610189565b60405161008e9190610ccb565b60405180910390f35b3480156100a357600080fd5b506100ac61029d565b6040516100b99190610ccb565b60405180910390f35b3480156100ce57600080fd5b506100e960048036038101906100e49190610ce6565b6102a3565b6040516100f7929190610e8f565b60405180910390f35b34801561010c57600080fd5b5061012760048036038101906101229190610ce6565b6103b3565b60405161013996959493929190610f54565b60405180910390f35b61015c60048036038101906101579190610ce6565b61051f565b005b34801561016a57600080fd5b50610173610682565b6040516101809190611272565b60405180910390f35b60008060008060015481526020019081526020016000209050428160030154106101e8576040517f08c379a00000000000000000000000000000000000000000000000000000000081526004016101df90611306565b60405180910390fd5b868160050160006101000a81548173ffffffffffffffffffffffffffffffffffffffff021916908373ffffffffffffffffffffffffffffffffffffffff1602179055508581600001908161023c9190611532565b50828160030181905550838160020181905550848160010190816102609190611532565b50600081600401819055506001600081548092919061027e90611633565b919050555060018054610291919061167b565b91505095945050505050565b60015481565b6060806000808481526020019081526020016000206006016000808581526020019081526020016000206007018180548060200260200160405190810160405280929190818152602001828054801561035157602002820191906000526020600020905b8160009054906101000a900473ffffffffffffffffffffffffffffffffffffffff1673ffffffffffffffffffffffffffffffffffffffff1681526020019060010190808311610307575b50505050509150808054806020026020016040519081016040528092919081815260200182805480156103a357602002820191906000526020600020905b81548152602001906001019080831161038f575b5050505050905091509150915091565b60006020528060005260406000206000915090508060000180546103d690611355565b80601f016020809104026020016040519081016040528092919081815260200182805461040290611355565b801561044f5780601f106104245761010080835404028352916020019161044f565b820191906000526020600020905b81548152906001019060200180831161043257829003601f168201915b50505050509080600101805461046490611355565b80601f016020809104026020016040519081016040528092919081815260200182805461049090611355565b80156104dd5780601f106104b2576101008083540402835291602001916104dd565b820191906000526020600020905b8154815290600101906020018083116104c057829003601f168201915b5050505050908060020154908060030154908060040154908060050160009054906101000a900473ffffffffffffffffffffffffffffffffffffffff16905086565b60003490506000806000848152602001908152602001600020905080600601339080600181540180825580915050600190039060005260206000200160009091909190916101000a81548173ffffffffffffffffffffffffffffffffffffffff021916908373ffffffffffffffffffffffffffffffffffffffff1602179055508060070182908060018154018082558091505060019003906000526020600020016000909190919091505560008160050160009054906101000a900473ffffffffffffffffffffffffffffffffffffffff1673ffffffffffffffffffffffffffffffffffffffff1683604051610614906116e0565b60006040518083038185875af1925050503d8060008114610651576040519150601f19603f3d011682016040523d82523d6000602084013e610656565b606091505b50509050801561067c578282600401600082825461067491906116f5565b925050819055505b50505050565b6060600060015467ffffffffffffffff8111156106a2576106a1610aa8565b5b6040519080825280602002602001820160405280156106db57816020015b6106c86109c0565b8152602001906001900390816106c05790505b50905060005b6001548110156109b85760008060008381526020019081526020016000209050806040518061010001604052908160008201805461071e90611355565b80601f016020809104026020016040519081016040528092919081815260200182805461074a90611355565b80156107975780601f1061076c57610100808354040283529160200191610797565b820191906000526020600020905b81548152906001019060200180831161077a57829003601f168201915b505050505081526020016001820180546107b090611355565b80601f01602080910402602001604051908101604052809291908181526020018280546107dc90611355565b80156108295780601f106107fe57610100808354040283529160200191610829565b820191906000526020600020905b81548152906001019060200180831161080c57829003601f168201915b505050505081526020016002820154815260200160038201548152602001600482015481526020016005820160009054906101000a900473ffffffffffffffffffffffffffffffffffffffff1673ffffffffffffffffffffffffffffffffffffffff1673ffffffffffffffffffffffffffffffffffffffff1681526020016006820180548060200260200160405190810160405280929190818152602001828054801561092b57602002820191906000526020600020905b8160009054906101000a900473ffffffffffffffffffffffffffffffffffffffff1673ffffffffffffffffffffffffffffffffffffffff16815260200190600101908083116108e1575b505050505081526020016007820180548060200260200160405190810160405280929190818152602001828054801561098357602002820191906000526020600020905b81548152602001906001019080831161096f575b50505050508152505083838151811061099f5761099e611729565b5b60200260200101819052505080806001019150506106e1565b508091505090565b6040518061010001604052806060815260200160608152602001600081526020016000815260200160008152602001600073ffffffffffffffffffffffffffffffffffffffff16815260200160608152602001606081525090565b6000604051905090565b600080fd5b600080fd5b600073ffffffffffffffffffffffffffffffffffffffff82169050919050565b6000610a5a82610a2f565b9050919050565b610a6a81610a4f565b8114610a7557600080fd5b50565b600081359050610a8781610a61565b92915050565b600080fd5b600080fd5b6000601f19601f8301169050919050565b7f4e487b7100000000000000000000000000000000000000000000000000000000600052604160045260246000fd5b610ae082610a97565b810181811067ffffffffffffffff82111715610aff57610afe610aa8565b5b80604052505050565b6000610b12610a1b565b9050610b1e8282610ad7565b919050565b600067ffffffffffffffff821115610b3e57610b3d610aa8565b5b610b4782610a97565b9050602081019050919050565b82818337600083830152505050565b6000610b76610b7184610b23565b610b08565b905082815260208101848484011115610b9257610b91610a92565b5b610b9d848285610b54565b509392505050565b600082601f830112610bba57610bb9610a8d565b5b8135610bca848260208601610b63565b91505092915050565b6000819050919050565b610be681610bd3565b8114610bf157600080fd5b50565b600081359050610c0381610bdd565b92915050565b600080600080600060a08688031215610c2557610c24610a25565b5b6000610c3388828901610a78565b955050602086013567ffffffffffffffff811115610c5457610c53610a2a565b5b610c6088828901610ba5565b945050604086013567ffffffffffffffff811115610c8157610c80610a2a565b5b610c8d88828901610ba5565b9350506060610c9e88828901610bf4565b9250506080610caf88828901610bf4565b9150509295509295909350565b610cc581610bd3565b82525050565b6000602082019050610ce06000830184610cbc565b92915050565b600060208284031215610cfc57610cfb610a25565b5b6000610d0a84828501610bf4565b91505092915050565b600081519050919050565b600082825260208201905092915050565b6000819050602082019050919050565b610d4881610a4f565b82525050565b6000610d5a8383610d3f565b60208301905092915050565b6000602082019050919050565b6000610d7e82610d13565b610d888185610d1e565b9350610d9383610d2f565b8060005b83811015610dc4578151610dab8882610d4e565b9750610db683610d66565b925050600181019050610d97565b5085935050505092915050565b600081519050919050565b600082825260208201905092915050565b6000819050602082019050919050565b610e0681610bd3565b82525050565b6000610e188383610dfd565b60208301905092915050565b6000602082019050919050565b6000610e3c82610dd1565b610e468185610ddc565b9350610e5183610ded565b8060005b83811015610e82578151610e698882610e0c565b9750610e7483610e24565b925050600181019050610e55565b5085935050505092915050565b60006040820190508181036000830152610ea98185610d73565b90508181036020830152610ebd8184610e31565b90509392505050565b600081519050919050565b600082825260208201905092915050565b60005b83811015610f00578082015181840152602081019050610ee5565b60008484015250505050565b6000610f1782610ec6565b610f218185610ed1565b9350610f31818560208601610ee2565b610f3a81610a97565b840191505092915050565b610f4e81610a4f565b82525050565b600060c0820190508181036000830152610f6e8189610f0c565b90508181036020830152610f828188610f0c565b9050610f916040830187610cbc565b610f9e6060830186610cbc565b610fab6080830185610cbc565b610fb860a0830184610f45565b979650505050505050565b600081519050919050565b600082825260208201905092915050565b6000819050602082019050919050565b600082825260208201905092915050565b600061100b82610ec6565b6110158185610fef565b9350611025818560208601610ee2565b61102e81610a97565b840191505092915050565b600082825260208201905092915050565b600061105582610d13565b61105f8185611039565b935061106a83610d2f565b8060005b8381101561109b5781516110828882610d4e565b975061108d83610d66565b92505060018101905061106e565b5085935050505092915050565b600082825260208201905092915050565b60006110c482610dd1565b6110ce81856110a8565b93506110d983610ded565b8060005b8381101561110a5781516110f18882610e0c565b97506110fc83610e24565b9250506001810190506110dd565b5085935050505092915050565b60006101008301600083015184820360008601526111358282611000565b9150506020830151848203602086015261114f8282611000565b91505060408301516111646040860182610dfd565b5060608301516111776060860182610dfd565b50608083015161118a6080860182610dfd565b5060a083015161119d60a0860182610d3f565b5060c083015184820360c08601526111b5828261104a565b91505060e083015184820360e08601526111cf82826110b9565b9150508091505092915050565b60006111e88383611117565b905092915050565b6000602082019050919050565b600061120882610fc3565b6112128185610fce565b93508360208202850161122485610fdf565b8060005b85811015611260578484038952815161124185826111dc565b945061124c836111f0565b925060208a01995050600181019050611228565b50829750879550505050505092915050565b6000602082019050818103600083015261128c81846111fd565b905092915050565b7f54686520646561646c696e652073686f756c642062652061206461746520696e60008201527f2074686520667574757265212120000000000000000000000000000000000000602082015250565b60006112f0602e83610ed1565b91506112fb82611294565b604082019050919050565b6000602082019050818103600083015261131f816112e3565b9050919050565b7f4e487b7100000000000000000000000000000000000000000000000000000000600052602260045260246000fd5b6000600282049050600182168061136d57607f821691505b6020821081036113805761137f611326565b5b50919050565b60008190508160005260206000209050919050565b60006020601f8301049050919050565b600082821b905092915050565b6000600883026113e87fffffffffffffffffffffffffffffffffffffffffffffffffffffffffffffffff826113ab565b6113f286836113ab565b95508019841693508086168417925050509392505050565b6000819050919050565b600061142f61142a61142584610bd3565b61140a565b610bd3565b9050919050565b6000819050919050565b61144983611414565b61145d61145582611436565b8484546113b8565b825550505050565b600090565b611472611465565b61147d818484611440565b505050565b5b818110156114a15761149660008261146a565b600181019050611483565b5050565b601f8211156114e6576114b781611386565b6114c08461139b565b810160208510156114cf578190505b6114e36114db8561139b565b830182611482565b50505b505050565b600082821c905092915050565b6000611509600019846008026114eb565b1980831691505092915050565b600061152283836114f8565b9150826002028217905092915050565b61153b82610ec6565b67ffffffffffffffff81111561155457611553610aa8565b5b61155e8254611355565b6115698282856114a5565b600060209050601f83116001811461159c576000841561158a578287015190505b6115948582611516565b8655506115fc565b601f1984166115aa86611386565b60005b828110156115d2578489015182556001820191506020850194506020810190506115ad565b868310156115ef57848901516115eb601f8916826114f8565b8355505b6001600288020188555050505b505050505050565b7f4e487b7100000000000000000000000000000000000000000000000000000000600052601160045260246000fd5b600061163e82610bd3565b91507fffffffffffffffffffffffffffffffffffffffffffffffffffffffffffffffff82036116705761166f611604565b5b600182019050919050565b600061168682610bd3565b915061169183610bd3565b92508282039050818111156116a9576116a8611604565b5b92915050565b600081905092915050565b50565b60006116ca6000836116af565b91506116d5826116ba565b600082019050919050565b60006116eb826116bd565b9150819050919050565b600061170082610bd3565b915061170b83610bd3565b925082820190508082111561172357611722611604565b5b92915050565b7f4e487b7100000000000000000000000000000000000000000000000000000000600052603260045260246000fdfea26469706673582212204d3c09037ecdfd220e208c051674970508e0d6908bd78d7e49721b494992427264736f6c634300081b0033",
  "linkReferences": {},
  "deployedLinkReferences": {}
}